{
  "_format": "hh-sol-artifact-1",
  "contractName": "VulnerableUpgradeable",
  "sourceName": "contracts/VulnerablePpxty.sol",
  "abi": [
    {
      "inputs": [],
      "name": "admin",
      "outputs": [
        {
          "internalType": "address",
          "name": "",
          "type": "address"
        }
      ],
      "stateMutability": "view",
      "type": "function"
    },
    {
      "inputs": [],
      "name": "criticalFunction",
      "outputs": [],
      "stateMutability": "nonpayable",
      "type": "function"
    },
    {
      "inputs": [
        {
          "internalType": "address",
          "name": "_admin",
          "type": "address"
        }
      ],
      "name": "initialize",
      "outputs": [],
      "stateMutability": "nonpayable",
      "type": "function"
    }
  ],
  "bytecode": "0x6080604052348015600f57600080fd5b506102cb8061001f6000396000f3fe608060405234801561001057600080fd5b50600436106100415760003560e01c80638927727b14610046578063c4d66de814610050578063f851a4401461006c575b600080fd5b61004e61008a565b005b61006a600480360381019061006591906101c1565b61008c565b005b610074610138565b60405161008191906101fd565b60405180910390f35b565b60008054906101000a900460ff16156100da576040517f08c379a00000000000000000000000000000000000000000000000000000000081526004016100d190610275565b60405180910390fd5b80600060016101000a81548173ffffffffffffffffffffffffffffffffffffffff021916908373ffffffffffffffffffffffffffffffffffffffff16021790555060016000806101000a81548160ff02191690831515021790555050565b600060019054906101000a900473ffffffffffffffffffffffffffffffffffffffff1681565b600080fd5b600073ffffffffffffffffffffffffffffffffffffffff82169050919050565b600061018e82610163565b9050919050565b61019e81610183565b81146101a957600080fd5b50565b6000813590506101bb81610195565b92915050565b6000602082840312156101d7576101d661015e565b5b60006101e5848285016101ac565b91505092915050565b6101f781610183565b82525050565b600060208201905061021260008301846101ee565b92915050565b600082825260208201905092915050565b7f416c726561647920696e697469616c697a656400000000000000000000000000600082015250565b600061025f601383610218565b915061026a82610229565b602082019050919050565b6000602082019050818103600083015261028e81610252565b905091905056fea2646970667358221220718ff729790640d7f038dd0a850a6053dc9ab6a59461f5fd2e9c35552202aae364736f6c634300081b0033",
  "linkReferences": {},
  "deployedLinkReferences": {}
}