{
  "_format": "hh-sol-artifact-1",
  "contractName": "VulnerableDelegate",
  "sourceName": "contracts/VulnerablePpxty.sol",
  "abi": [
    {
      "inputs": [
        {
          "internalType": "address",
          "name": "",
          "type": "address"
        }
      ],
      "name": "balances",
      "outputs": [
        {
          "internalType": "uint256",
          "name": "",
          "type": "uint256"
        }
      ],
      "stateMutability": "view",
      "type": "function"
    },
    {
      "inputs": [
        {
          "internalType": "address",
          "name": "_owner",
          "type": "address"
        }
      ],
      "name": "initialize",
      "outputs": [],
      "stateMutability": "nonpayable",
      "type": "function"
    },
    {
      "inputs": [],
      "name": "owner",
      "outputs": [
        {
          "internalType": "address",
          "name": "",
          "type": "address"
        }
      ],
      "stateMutability": "view",
      "type": "function"
    },
    {
      "inputs": [
        {
          "internalType": "uint256",
          "name": "amount",
          "type": "uint256"
        }
      ],
      "name": "withdraw",
      "outputs": [],
      "stateMutability": "nonpayable",
      "type": "function"
    }
  ],
  "bytecode": "0x6080604052348015600f57600080fd5b506103d68061001f6000396000f3fe608060405234801561001057600080fd5b506004361061004c5760003560e01c806327e235e3146100515780632e1a7d4d146100815780638da5cb5b1461009d578063c4d66de8146100bb575b600080fd5b61006b60048036038101906100669190610259565b6100d7565b604051610078919061029f565b60405180910390f35b61009b600480360381019061009691906102e6565b6100ef565b005b6100a561018f565b6040516100b29190610322565b60405180910390f35b6100d560048036038101906100d09190610259565b6101b3565b005b60016020528060005260406000206000915090505481565b80600160003373ffffffffffffffffffffffffffffffffffffffff1673ffffffffffffffffffffffffffffffffffffffff168152602001908152602001600020600082825461013e919061036c565b925050819055503373ffffffffffffffffffffffffffffffffffffffff166108fc829081150290604051600060405180830381858888f1935050505015801561018b573d6000803e3d6000fd5b5050565b60008054906101000a900473ffffffffffffffffffffffffffffffffffffffff1681565b806000806101000a81548173ffffffffffffffffffffffffffffffffffffffff021916908373ffffffffffffffffffffffffffffffffffffffff16021790555050565b600080fd5b600073ffffffffffffffffffffffffffffffffffffffff82169050919050565b6000610226826101fb565b9050919050565b6102368161021b565b811461024157600080fd5b50565b6000813590506102538161022d565b92915050565b60006020828403121561026f5761026e6101f6565b5b600061027d84828501610244565b91505092915050565b6000819050919050565b61029981610286565b82525050565b60006020820190506102b46000830184610290565b92915050565b6102c381610286565b81146102ce57600080fd5b50565b6000813590506102e0816102ba565b92915050565b6000602082840312156102fc576102fb6101f6565b5b600061030a848285016102d1565b91505092915050565b61031c8161021b565b82525050565b60006020820190506103376000830184610313565b92915050565b7f4e487b7100000000000000000000000000000000000000000000000000000000600052601160045260246000fd5b600061037782610286565b915061038283610286565b925082820390508181111561039a5761039961033d565b5b9291505056fea2646970667358221220e5edb1cdf10f0f02e82a3e16fc836bca13360f9fa405040574a260a4283b8fb864736f6c634300081b0033",
  "linkReferences": {},
  "deployedLinkReferences": {}
}