{
  "_format": "hh-sol-artifact-1",
  "contractName": "VulnerableStakingContract",
  "sourceName": "contracts/VulnerableDS.sol",
  "abi": [
    {
      "inputs": [],
      "stateMutability": "nonpayable",
      "type": "constructor"
    },
    {
      "anonymous": false,
      "inputs": [
        {
          "indexed": true,
          "internalType": "address",
          "name": "user",
          "type": "address"
        },
        {
          "indexed": false,
          "internalType": "uint256",
          "name": "reward",
          "type": "uint256"
        }
      ],
      "name": "RewardPaid",
      "type": "event"
    },
    {
      "anonymous": false,
      "inputs": [
        {
          "indexed": true,
          "internalType": "address",
          "name": "user",
          "type": "address"
        },
        {
          "indexed": false,
          "internalType": "uint256",
          "name": "amount",
          "type": "uint256"
        }
      ],
      "name": "Staked",
      "type": "event"
    },
    {
      "anonymous": false,
      "inputs": [
        {
          "indexed": true,
          "internalType": "address",
          "name": "user",
          "type": "address"
        },
        {
          "indexed": false,
          "internalType": "uint256",
          "name": "amount",
          "type": "uint256"
        }
      ],
      "name": "Withdrawn",
      "type": "event"
    },
    {
      "inputs": [],
      "name": "REWARD_RATE",
      "outputs": [
        {
          "internalType": "uint256",
          "name": "",
          "type": "uint256"
        }
      ],
      "stateMutability": "view",
      "type": "function"
    },
    {
      "inputs": [],
      "name": "addFunds",
      "outputs": [],
      "stateMutability": "payable",
      "type": "function"
    },
    {
      "inputs": [
        {
          "internalType": "address",
          "name": "",
          "type": "address"
        }
      ],
      "name": "balances",
      "outputs": [
        {
          "internalType": "uint256",
          "name": "",
          "type": "uint256"
        }
      ],
      "stateMutability": "view",
      "type": "function"
    },
    {
      "inputs": [
        {
          "internalType": "uint256",
          "name": "value",
          "type": "uint256"
        },
        {
          "internalType": "uint256",
          "name": "percentage",
          "type": "uint256"
        }
      ],
      "name": "calculatePercentage",
      "outputs": [
        {
          "internalType": "uint256",
          "name": "",
          "type": "uint256"
        }
      ],
      "stateMutability": "pure",
      "type": "function"
    },
    {
      "inputs": [],
      "name": "claimRewards",
      "outputs": [],
      "stateMutability": "nonpayable",
      "type": "function"
    },
    {
      "inputs": [],
      "name": "distributeRewards",
      "outputs": [],
      "stateMutability": "nonpayable",
      "type": "function"
    },
    {
      "inputs": [],
      "name": "emergencyShutdown",
      "outputs": [],
      "stateMutability": "nonpayable",
      "type": "function"
    },
    {
      "inputs": [
        {
          "internalType": "address",
          "name": "",
          "type": "address"
        }
      ],
      "name": "lockTime",
      "outputs": [
        {
          "internalType": "uint256",
          "name": "",
          "type": "uint256"
        }
      ],
      "stateMutability": "view",
      "type": "function"
    },
    {
      "inputs": [],
      "name": "owner",
      "outputs": [
        {
          "internalType": "address",
          "name": "",
          "type": "address"
        }
      ],
      "stateMutability": "view",
      "type": "function"
    },
    {
      "inputs": [
        {
          "internalType": "address",
          "name": "",
          "type": "address"
        }
      ],
      "name": "rewards",
      "outputs": [
        {
          "internalType": "uint256",
          "name": "",
          "type": "uint256"
        }
      ],
      "stateMutability": "view",
      "type": "function"
    },
    {
      "inputs": [
        {
          "internalType": "uint256",
          "name": "_amount",
          "type": "uint256"
        }
      ],
      "name": "stake",
      "outputs": [],
      "stateMutability": "nonpayable",
      "type": "function"
    },
    {
      "inputs": [],
      "name": "totalStaked",
      "outputs": [
        {
          "internalType": "uint256",
          "name": "",
          "type": "uint256"
        }
      ],
      "stateMutability": "view",
      "type": "function"
    },
    {
      "inputs": [
        {
          "internalType": "address",
          "name": "newOwner",
          "type": "address"
        }
      ],
      "name": "transferOwnership",
      "outputs": [],
      "stateMutability": "nonpayable",
      "type": "function"
    },
    {
      "inputs": [
        {
          "internalType": "uint256",
          "name": "newRate",
          "type": "uint256"
        }
      ],
      "name": "updateRewardRate",
      "outputs": [],
      "stateMutability": "nonpayable",
      "type": "function"
    },
    {
      "inputs": [
        {
          "internalType": "uint256",
          "name": "_amount",
          "type": "uint256"
        }
      ],
      "name": "withdraw",
      "outputs": [],
      "stateMutability": "nonpayable",
      "type": "function"
    },
    {
      "inputs": [],
      "name": "withdrawRewards",
      "outputs": [],
      "stateMutability": "nonpayable",
      "type": "function"
    },
    {
      "stateMutability": "payable",
      "type": "receive"
    }
  ],
  "bytecode": "0x6080604052600a600655348015601457600080fd5b5033600460006101000a81548173ffffffffffffffffffffffffffffffffffffffff021916908373ffffffffffffffffffffffffffffffffffffffff16021790555060006005819055506116238061006d6000396000f3fe6080604052600436106100f75760003560e01c8063817b1cd21161008a578063a4beda6311610059578063a4beda631461033b578063a694fc3a14610378578063c7b8981c146103a1578063f2fde38b146103b85761015d565b8063817b1cd2146102b25780638da5cb5b146102dd5780639ef3a26114610308578063a26759cb146103315761015d565b80633403c2fc116100c65780633403c2fc14610242578063372500ab146102595780635997bb37146102705780636f4a2cd01461029b5761015d565b80630700037d146101625780632133e3b91461019f57806327e235e3146101dc5780632e1a7d4d146102195761015d565b3661015d57600034111561015b57346000803373ffffffffffffffffffffffffffffffffffffffff1673ffffffffffffffffffffffffffffffffffffffff16815260200190815260200160002060008282546101539190610fbb565b925050819055505b005b600080fd5b34801561016e57600080fd5b5061018960048036038101906101849190611052565b6103e1565b604051610196919061108e565b60405180910390f35b3480156101ab57600080fd5b506101c660048036038101906101c191906110d5565b6103f9565b6040516101d3919061108e565b60405180910390f35b3480156101e857600080fd5b5061020360048036038101906101fe9190611052565b61041b565b604051610210919061108e565b60405180910390f35b34801561022557600080fd5b50610240600480360381019061023b9190611115565b610433565b005b34801561024e57600080fd5b50610257610728565b005b34801561026557600080fd5b5061026e6107f3565b005b34801561027c57600080fd5b50610285610923565b604051610292919061108e565b60405180910390f35b3480156102a757600080fd5b506102b0610929565b005b3480156102be57600080fd5b506102c7610ad0565b6040516102d4919061108e565b60405180910390f35b3480156102e957600080fd5b506102f2610ad6565b6040516102ff9190611151565b60405180910390f35b34801561031457600080fd5b5061032f600480360381019061032a9190611115565b610afc565b005b610339610b06565b005b34801561034757600080fd5b50610362600480360381019061035d9190611052565b610b98565b60405161036f919061108e565b60405180910390f35b34801561038457600080fd5b5061039f600480360381019061039a9190611115565b610bb0565b005b3480156103ad57600080fd5b506103b6610d24565b005b3480156103c457600080fd5b506103df60048036038101906103da9190611052565b610eae565b005b60016020528060005260406000206000915090505481565b600060648284610409919061116c565b61041391906111dd565b905092915050565b60006020528060005260406000206000915090505481565b600760009054906101000a900460ff1615610483576040517f08c379a000000000000000000000000000000000000000000000000000000000815260040161047a9061126b565b60405180910390fd5b6001600760006101000a81548160ff021916908315150217905550806000803373ffffffffffffffffffffffffffffffffffffffff1673ffffffffffffffffffffffffffffffffffffffff16815260200190815260200160002054101561051f576040517f08c379a0000000000000000000000000000000000000000000000000000000008152600401610516906112d7565b60405180910390fd5b600260003373ffffffffffffffffffffffffffffffffffffffff1673ffffffffffffffffffffffffffffffffffffffff168152602001908152602001600020544210156105a1576040517f08c379a000000000000000000000000000000000000000000000000000000000815260040161059890611343565b60405180910390fd5b60003373ffffffffffffffffffffffffffffffffffffffff16826040516105c790611394565b60006040518083038185875af1925050503d8060008114610604576040519150601f19603f3d011682016040523d82523d6000602084013e610609565b606091505b505090508061064d576040517f08c379a0000000000000000000000000000000000000000000000000000000008152600401610644906113f5565b60405180910390fd5b816000803373ffffffffffffffffffffffffffffffffffffffff1673ffffffffffffffffffffffffffffffffffffffff168152602001908152602001600020600082825461069b9190611415565b9250508190555081600560008282546106b49190611415565b925050819055503373ffffffffffffffffffffffffffffffffffffffff167f7084f5476618d8e60b11ef0d7d3f06914655adb8793e28ff7f018d4c76d505d583604051610701919061108e565b60405180910390a2506000600760006101000a81548160ff02191690831515021790555050565b600460009054906101000a900473ffffffffffffffffffffffffffffffffffffffff1673ffffffffffffffffffffffffffffffffffffffff163373ffffffffffffffffffffffffffffffffffffffff16146107b8576040517f08c379a00000000000000000000000000000000000000000000000000000000081526004016107af90611495565b60405180910390fd5b600460009054906101000a900473ffffffffffffffffffffffffffffffffffffffff1673ffffffffffffffffffffffffffffffffffffffff16ff5b600060646001436108049190611415565b4060001c61081291906114b5565b905060006064826006546000803373ffffffffffffffffffffffffffffffffffffffff1673ffffffffffffffffffffffffffffffffffffffff16815260200190815260200160002054610865919061116c565b61086f919061116c565b61087991906111dd565b905080600160003373ffffffffffffffffffffffffffffffffffffffff1673ffffffffffffffffffffffffffffffffffffffff16815260200190815260200160002060008282546108ca9190610fbb565b925050819055503373ffffffffffffffffffffffffffffffffffffffff167fe2403640ba68fed3a2f88b7557551d1993f84b99bb10ff833f0cf8db0c5e048682604051610917919061108e565b60405180910390a25050565b60065481565b600460009054906101000a900473ffffffffffffffffffffffffffffffffffffffff1673ffffffffffffffffffffffffffffffffffffffff163373ffffffffffffffffffffffffffffffffffffffff16146109b9576040517f08c379a00000000000000000000000000000000000000000000000000000000081526004016109b090611495565b60405180910390fd5b60005b600380549050811015610acd576000600382815481106109df576109de6114e6565b5b9060005260206000200160009054906101000a900473ffffffffffffffffffffffffffffffffffffffff169050600060646006546000808573ffffffffffffffffffffffffffffffffffffffff1673ffffffffffffffffffffffffffffffffffffffff16815260200190815260200160002054610a5c919061116c565b610a6691906111dd565b905080600160008473ffffffffffffffffffffffffffffffffffffffff1673ffffffffffffffffffffffffffffffffffffffff1681526020019081526020016000206000828254610ab79190610fbb565b92505081905550505080806001019150506109bc565b50565b60055481565b600460009054906101000a900473ffffffffffffffffffffffffffffffffffffffff1681565b8060068190555050565b600460009054906101000a900473ffffffffffffffffffffffffffffffffffffffff1673ffffffffffffffffffffffffffffffffffffffff163373ffffffffffffffffffffffffffffffffffffffff1614610b96576040517f08c379a0000000000000000000000000000000000000000000000000000000008152600401610b8d90611495565b60405180910390fd5b565b60026020528060005260406000206000915090505481565b806000803373ffffffffffffffffffffffffffffffffffffffff1673ffffffffffffffffffffffffffffffffffffffff1681526020019081526020016000206000828254610bfe9190610fbb565b925050819055508060056000828254610c179190610fbb565b9250508190555062278d0042610c2d9190610fbb565b600260003373ffffffffffffffffffffffffffffffffffffffff1673ffffffffffffffffffffffffffffffffffffffff168152602001908152602001600020819055506003339080600181540180825580915050600190039060005260206000200160009091909190916101000a81548173ffffffffffffffffffffffffffffffffffffffff021916908373ffffffffffffffffffffffffffffffffffffffff1602179055503373ffffffffffffffffffffffffffffffffffffffff167f9e71bc8eea02a63969f509818f2dafb9254532904319f9dbda79b67bd34a5f3d82604051610d19919061108e565b60405180910390a250565b6000600160003373ffffffffffffffffffffffffffffffffffffffff1673ffffffffffffffffffffffffffffffffffffffff16815260200190815260200160002054905060008111610dab576040517f08c379a0000000000000000000000000000000000000000000000000000000008152600401610da290611561565b60405180910390fd5b60003373ffffffffffffffffffffffffffffffffffffffff1682604051610dd190611394565b60006040518083038185875af1925050503d8060008114610e0e576040519150601f19603f3d011682016040523d82523d6000602084013e610e13565b606091505b505090506000600160003373ffffffffffffffffffffffffffffffffffffffff1673ffffffffffffffffffffffffffffffffffffffff168152602001908152602001600020819055503373ffffffffffffffffffffffffffffffffffffffff167fe2403640ba68fed3a2f88b7557551d1993f84b99bb10ff833f0cf8db0c5e048683604051610ea2919061108e565b60405180910390a25050565b600460009054906101000a900473ffffffffffffffffffffffffffffffffffffffff1673ffffffffffffffffffffffffffffffffffffffff163273ffffffffffffffffffffffffffffffffffffffff1614610f3e576040517f08c379a0000000000000000000000000000000000000000000000000000000008152600401610f35906115cd565b60405180910390fd5b80600460006101000a81548173ffffffffffffffffffffffffffffffffffffffff021916908373ffffffffffffffffffffffffffffffffffffffff16021790555050565b6000819050919050565b7f4e487b7100000000000000000000000000000000000000000000000000000000600052601160045260246000fd5b6000610fc682610f82565b9150610fd183610f82565b9250828201905080821115610fe957610fe8610f8c565b5b92915050565b600080fd5b600073ffffffffffffffffffffffffffffffffffffffff82169050919050565b600061101f82610ff4565b9050919050565b61102f81611014565b811461103a57600080fd5b50565b60008135905061104c81611026565b92915050565b60006020828403121561106857611067610fef565b5b60006110768482850161103d565b91505092915050565b61108881610f82565b82525050565b60006020820190506110a3600083018461107f565b92915050565b6110b281610f82565b81146110bd57600080fd5b50565b6000813590506110cf816110a9565b92915050565b600080604083850312156110ec576110eb610fef565b5b60006110fa858286016110c0565b925050602061110b858286016110c0565b9150509250929050565b60006020828403121561112b5761112a610fef565b5b6000611139848285016110c0565b91505092915050565b61114b81611014565b82525050565b60006020820190506111666000830184611142565b92915050565b600061117782610f82565b915061118283610f82565b925082820261119081610f82565b915082820484148315176111a7576111a6610f8c565b5b5092915050565b7f4e487b7100000000000000000000000000000000000000000000000000000000600052601260045260246000fd5b60006111e882610f82565b91506111f383610f82565b925082611203576112026111ae565b5b828204905092915050565b600082825260208201905092915050565b7f4e6f207265656e7472616e637900000000000000000000000000000000000000600082015250565b6000611255600d8361120e565b91506112608261121f565b602082019050919050565b6000602082019050818103600083015261128481611248565b9050919050565b7f496e73756666696369656e742062616c616e6365000000000000000000000000600082015250565b60006112c160148361120e565b91506112cc8261128b565b602082019050919050565b600060208201905081810360008301526112f0816112b4565b9050919050565b7f546f6b656e73206c6f636b656400000000000000000000000000000000000000600082015250565b600061132d600d8361120e565b9150611338826112f7565b602082019050919050565b6000602082019050818103600083015261135c81611320565b9050919050565b600081905092915050565b50565b600061137e600083611363565b91506113898261136e565b600082019050919050565b600061139f82611371565b9150819050919050565b7f5472616e73666572206661696c65640000000000000000000000000000000000600082015250565b60006113df600f8361120e565b91506113ea826113a9565b602082019050919050565b6000602082019050818103600083015261140e816113d2565b9050919050565b600061142082610f82565b915061142b83610f82565b925082820390508181111561144357611442610f8c565b5b92915050565b7f4e6f74206f776e65720000000000000000000000000000000000000000000000600082015250565b600061147f60098361120e565b915061148a82611449565b602082019050919050565b600060208201905081810360008301526114ae81611472565b9050919050565b60006114c082610f82565b91506114cb83610f82565b9250826114db576114da6111ae565b5b828206905092915050565b7f4e487b7100000000000000000000000000000000000000000000000000000000600052603260045260246000fd5b7f4e6f207265776172647300000000000000000000000000000000000000000000600082015250565b600061154b600a8361120e565b915061155682611515565b602082019050919050565b6000602082019050818103600083015261157a8161153e565b9050919050565b7f4e6f7420617574686f72697a6564000000000000000000000000000000000000600082015250565b60006115b7600e8361120e565b91506115c282611581565b602082019050919050565b600060208201905081810360008301526115e6816115aa565b905091905056fea26469706673582212202376ccc81a33dfb2a0f83a3c881c295380ed637c5d8bbc71f3ad453cd446546c64736f6c634300081b0033",
  "linkReferences": {},
  "deployedLinkReferences": {}
}